{
  "contractName": "Color",
  "abi": [
    {
      "inputs": [],
      "stateMutability": "nonpayable",
      "type": "constructor"
    },
    {
      "anonymous": false,
      "inputs": [
        {
          "indexed": true,
          "internalType": "address",
          "name": "owner",
          "type": "address"
        },
        {
          "indexed": true,
          "internalType": "address",
          "name": "approved",
          "type": "address"
        },
        {
          "indexed": true,
          "internalType": "uint256",
          "name": "tokenId",
          "type": "uint256"
        }
      ],
      "name": "Approval",
      "type": "event"
    },
    {
      "anonymous": false,
      "inputs": [
        {
          "indexed": true,
          "internalType": "address",
          "name": "owner",
          "type": "address"
        },
        {
          "indexed": true,
          "internalType": "address",
          "name": "operator",
          "type": "address"
        },
        {
          "indexed": false,
          "internalType": "bool",
          "name": "approved",
          "type": "bool"
        }
      ],
      "name": "ApprovalForAll",
      "type": "event"
    },
    {
      "anonymous": false,
      "inputs": [
        {
          "indexed": true,
          "internalType": "address",
          "name": "from",
          "type": "address"
        },
        {
          "indexed": true,
          "internalType": "address",
          "name": "to",
          "type": "address"
        },
        {
          "indexed": true,
          "internalType": "uint256",
          "name": "tokenId",
          "type": "uint256"
        }
      ],
      "name": "Transfer",
      "type": "event"
    },
    {
      "inputs": [
        {
          "internalType": "address",
          "name": "to",
          "type": "address"
        },
        {
          "internalType": "uint256",
          "name": "tokenId",
          "type": "uint256"
        }
      ],
      "name": "approve",
      "outputs": [],
      "stateMutability": "nonpayable",
      "type": "function"
    },
    {
      "inputs": [
        {
          "internalType": "address",
          "name": "owner",
          "type": "address"
        }
      ],
      "name": "balanceOf",
      "outputs": [
        {
          "internalType": "uint256",
          "name": "",
          "type": "uint256"
        }
      ],
      "stateMutability": "view",
      "type": "function",
      "constant": true
    },
    {
      "inputs": [
        {
          "internalType": "uint256",
          "name": "",
          "type": "uint256"
        }
      ],
      "name": "colors",
      "outputs": [
        {
          "internalType": "string",
          "name": "",
          "type": "string"
        }
      ],
      "stateMutability": "view",
      "type": "function",
      "constant": true
    },
    {
      "inputs": [
        {
          "internalType": "uint256",
          "name": "tokenId",
          "type": "uint256"
        }
      ],
      "name": "getApproved",
      "outputs": [
        {
          "internalType": "address",
          "name": "",
          "type": "address"
        }
      ],
      "stateMutability": "view",
      "type": "function",
      "constant": true
    },
    {
      "inputs": [
        {
          "internalType": "address",
          "name": "owner",
          "type": "address"
        },
        {
          "internalType": "address",
          "name": "operator",
          "type": "address"
        }
      ],
      "name": "isApprovedForAll",
      "outputs": [
        {
          "internalType": "bool",
          "name": "",
          "type": "bool"
        }
      ],
      "stateMutability": "view",
      "type": "function",
      "constant": true
    },
    {
      "inputs": [],
      "name": "name",
      "outputs": [
        {
          "internalType": "string",
          "name": "",
          "type": "string"
        }
      ],
      "stateMutability": "view",
      "type": "function",
      "constant": true
    },
    {
      "inputs": [
        {
          "internalType": "uint256",
          "name": "tokenId",
          "type": "uint256"
        }
      ],
      "name": "ownerOf",
      "outputs": [
        {
          "internalType": "address",
          "name": "",
          "type": "address"
        }
      ],
      "stateMutability": "view",
      "type": "function",
      "constant": true
    },
    {
      "inputs": [
        {
          "internalType": "address",
          "name": "from",
          "type": "address"
        },
        {
          "internalType": "address",
          "name": "to",
          "type": "address"
        },
        {
          "internalType": "uint256",
          "name": "tokenId",
          "type": "uint256"
        }
      ],
      "name": "safeTransferFrom",
      "outputs": [],
      "stateMutability": "nonpayable",
      "type": "function"
    },
    {
      "inputs": [
        {
          "internalType": "address",
          "name": "from",
          "type": "address"
        },
        {
          "internalType": "address",
          "name": "to",
          "type": "address"
        },
        {
          "internalType": "uint256",
          "name": "tokenId",
          "type": "uint256"
        },
        {
          "internalType": "bytes",
          "name": "_data",
          "type": "bytes"
        }
      ],
      "name": "safeTransferFrom",
      "outputs": [],
      "stateMutability": "nonpayable",
      "type": "function"
    },
    {
      "inputs": [
        {
          "internalType": "address",
          "name": "operator",
          "type": "address"
        },
        {
          "internalType": "bool",
          "name": "approved",
          "type": "bool"
        }
      ],
      "name": "setApprovalForAll",
      "outputs": [],
      "stateMutability": "nonpayable",
      "type": "function"
    },
    {
      "inputs": [
        {
          "internalType": "bytes4",
          "name": "interfaceId",
          "type": "bytes4"
        }
      ],
      "name": "supportsInterface",
      "outputs": [
        {
          "internalType": "bool",
          "name": "",
          "type": "bool"
        }
      ],
      "stateMutability": "view",
      "type": "function",
      "constant": true
    },
    {
      "inputs": [],
      "name": "symbol",
      "outputs": [
        {
          "internalType": "string",
          "name": "",
          "type": "string"
        }
      ],
      "stateMutability": "view",
      "type": "function",
      "constant": true
    },
    {
      "inputs": [
        {
          "internalType": "uint256",
          "name": "tokenId",
          "type": "uint256"
        }
      ],
      "name": "tokenURI",
      "outputs": [
        {
          "internalType": "string",
          "name": "",
          "type": "string"
        }
      ],
      "stateMutability": "view",
      "type": "function",
      "constant": true
    },
    {
      "inputs": [
        {
          "internalType": "address",
          "name": "from",
          "type": "address"
        },
        {
          "internalType": "address",
          "name": "to",
          "type": "address"
        },
        {
          "internalType": "uint256",
          "name": "tokenId",
          "type": "uint256"
        }
      ],
      "name": "transferFrom",
      "outputs": [],
      "stateMutability": "nonpayable",
      "type": "function"
    },
    {
      "inputs": [
        {
          "internalType": "string",
          "name": "_color",
          "type": "string"
        }
      ],
      "name": "mint",
      "outputs": [],
      "stateMutability": "nonpayable",
      "type": "function"
    },
    {
      "inputs": [],
      "name": "allColors",
      "outputs": [
        {
          "internalType": "uint256",
          "name": "",
          "type": "uint256"
        }
      ],
      "stateMutability": "view",
      "type": "function",
      "constant": true
    }
  ],
  "bytecode": "0x60806040523480156200001157600080fd5b506040518060400160405280600581526020017f436f6c6f720000000000000000000000000000000000000000000000000000008152506040518060400160405280600581526020017f434f4c4f52000000000000000000000000000000000000000000000000000000815250816000908051906020019062000096929190620000b8565b508060019080519060200190620000af929190620000b8565b505050620001cc565b828054620000c69062000197565b90600052602060002090601f016020900481019282620000ea576000855562000136565b82601f106200010557805160ff191683800117855562000136565b8280016001018555821562000136579182015b828111156200013557825182559160200191906001019062000118565b5b50905062000145919062000149565b5090565b5b80821115620001645760008160009055506001016200014a565b5090565b7f4e487b7100000000000000000000000000000000000000000000000000000000600052602260045260246000fd5b60006002820490506001821680620001b057607f821691505b602082108103620001c657620001c562000168565b5b50919050565b612a4c80620001dc6000396000f3fe608060405234801561001057600080fd5b50600436106101005760003560e01c806370a0823111610097578063bd11f69d11610066578063bd11f69d146102ab578063c87b56dd146102db578063d85d3d271461030b578063e985e9c51461032757610100565b806370a082311461022557806395d89b4114610255578063a22cb46514610273578063b88d4fde1461028f57610100565b806323b872dd116100d357806323b872dd1461019f57806342842e0e146101bb57806361c8e6f6146101d75780636352211e146101f557610100565b806301ffc9a71461010557806306fdde0314610135578063081812fc14610153578063095ea7b314610183575b600080fd5b61011f600480360381019061011a91906118d0565b610357565b60405161012c9190611918565b60405180910390f35b61013d610439565b60405161014a91906119cc565b60405180910390f35b61016d60048036038101906101689190611a24565b6104cb565b60405161017a9190611a92565b60405180910390f35b61019d60048036038101906101989190611ad9565b610550565b005b6101b960048036038101906101b49190611b19565b610667565b005b6101d560048036038101906101d09190611b19565b6106c7565b005b6101df6106e7565b6040516101ec9190611b7b565b60405180910390f35b61020f600480360381019061020a9190611a24565b6106f4565b60405161021c9190611a92565b60405180910390f35b61023f600480360381019061023a9190611b96565b6107a5565b60405161024c9190611b7b565b60405180910390f35b61025d61085c565b60405161026a91906119cc565b60405180910390f35b61028d60048036038101906102889190611bef565b6108ee565b005b6102a960048036038101906102a49190611d64565b610904565b005b6102c560048036038101906102c09190611a24565b610966565b6040516102d291906119cc565b60405180910390f35b6102f560048036038101906102f09190611a24565b610a12565b60405161030291906119cc565b60405180910390f35b61032560048036038101906103209190611e88565b610ab9565b005b610341600480360381019061033c9190611ed1565b610b86565b60405161034e9190611918565b60405180910390f35b60007f80ac58cd000000000000000000000000000000000000000000000000000000007bffffffffffffffffffffffffffffffffffffffffffffffffffffffff1916827bffffffffffffffffffffffffffffffffffffffffffffffffffffffff1916148061042257507f5b5e139f000000000000000000000000000000000000000000000000000000007bffffffffffffffffffffffffffffffffffffffffffffffffffffffff1916827bffffffffffffffffffffffffffffffffffffffffffffffffffffffff1916145b80610432575061043182610c1a565b5b9050919050565b60606000805461044890611f40565b80601f016020809104026020016040519081016040528092919081815260200182805461047490611f40565b80156104c15780601f10610496576101008083540402835291602001916104c1565b820191906000526020600020905b8154815290600101906020018083116104a457829003601f168201915b5050505050905090565b60006104d682610c84565b610515576040517f08c379a000000000000000000000000000000000000000000000000000000000815260040161050c90611fe3565b60405180910390fd5b6004600083815260200190815260200160002060009054906101000a900473ffffffffffffffffffffffffffffffffffffffff169050919050565b600061055b826106f4565b90508073ffffffffffffffffffffffffffffffffffffffff168373ffffffffffffffffffffffffffffffffffffffff16036105cb576040517f08c379a00000000000000000000000000000000000000000000000000000000081526004016105c290612075565b60405180910390fd5b8073ffffffffffffffffffffffffffffffffffffffff166105ea610cf0565b73ffffffffffffffffffffffffffffffffffffffff161480610619575061061881610613610cf0565b610b86565b5b610658576040517f08c379a000000000000000000000000000000000000000000000000000000000815260040161064f90612107565b60405180910390fd5b6106628383610cf8565b505050565b610678610672610cf0565b82610db1565b6106b7576040517f08c379a00000000000000000000000000000000000000000000000000000000081526004016106ae90612199565b60405180910390fd5b6106c2838383610e8f565b505050565b6106e283838360405180602001604052806000815250610904565b505050565b6000600680549050905090565b6000806002600084815260200190815260200160002060009054906101000a900473ffffffffffffffffffffffffffffffffffffffff169050600073ffffffffffffffffffffffffffffffffffffffff168173ffffffffffffffffffffffffffffffffffffffff160361079c576040517f08c379a00000000000000000000000000000000000000000000000000000000081526004016107939061222b565b60405180910390fd5b80915050919050565b60008073ffffffffffffffffffffffffffffffffffffffff168273ffffffffffffffffffffffffffffffffffffffff1603610815576040517f08c379a000000000000000000000000000000000000000000000000000000000815260040161080c906122bd565b60405180910390fd5b600360008373ffffffffffffffffffffffffffffffffffffffff1673ffffffffffffffffffffffffffffffffffffffff168152602001908152602001600020549050919050565b60606001805461086b90611f40565b80601f016020809104026020016040519081016040528092919081815260200182805461089790611f40565b80156108e45780601f106108b9576101008083540402835291602001916108e4565b820191906000526020600020905b8154815290600101906020018083116108c757829003601f168201915b5050505050905090565b6109006108f9610cf0565b83836110f5565b5050565b61091561090f610cf0565b83610db1565b610954576040517f08c379a000000000000000000000000000000000000000000000000000000000815260040161094b90612199565b60405180910390fd5b61096084848484611261565b50505050565b6006818154811061097657600080fd5b90600052602060002001600091509050805461099190611f40565b80601f01602080910402602001604051908101604052809291908181526020018280546109bd90611f40565b8015610a0a5780601f106109df57610100808354040283529160200191610a0a565b820191906000526020600020905b8154815290600101906020018083116109ed57829003601f168201915b505050505081565b6060610a1d82610c84565b610a5c576040517f08c379a0000000000000000000000000000000000000000000000000000000008152600401610a539061234f565b60405180910390fd5b6000610a666112bd565b90506000815111610a865760405180602001604052806000815250610ab1565b80610a90846112d4565b604051602001610aa19291906123ab565b6040516020818303038152906040525b915050919050565b600781604051610ac991906123cf565b908152602001604051809103902060009054906101000a900460ff1615610aef57600080fd5b600681908060018154018082558091505060019003906000526020600020016000909190919091509080519060200190610b2a9291906117c1565b5060006001600680549050610b3f9190612415565b9050610b4b3382611434565b6001600783604051610b5d91906123cf565b908152602001604051809103902060006101000a81548160ff0219169083151502179055505050565b6000600560008473ffffffffffffffffffffffffffffffffffffffff1673ffffffffffffffffffffffffffffffffffffffff16815260200190815260200160002060008373ffffffffffffffffffffffffffffffffffffffff1673ffffffffffffffffffffffffffffffffffffffff16815260200190815260200160002060009054906101000a900460ff16905092915050565b60007f01ffc9a7000000000000000000000000000000000000000000000000000000007bffffffffffffffffffffffffffffffffffffffffffffffffffffffff1916827bffffffffffffffffffffffffffffffffffffffffffffffffffffffff1916149050919050565b60008073ffffffffffffffffffffffffffffffffffffffff166002600084815260200190815260200160002060009054906101000a900473ffffffffffffffffffffffffffffffffffffffff1673ffffffffffffffffffffffffffffffffffffffff1614159050919050565b600033905090565b816004600083815260200190815260200160002060006101000a81548173ffffffffffffffffffffffffffffffffffffffff021916908373ffffffffffffffffffffffffffffffffffffffff160217905550808273ffffffffffffffffffffffffffffffffffffffff16610d6b836106f4565b73ffffffffffffffffffffffffffffffffffffffff167f8c5be1e5ebec7d5bd14f71427d1e84f3dd0314c0f7b2291e5b200ac8c7c3b92560405160405180910390a45050565b6000610dbc82610c84565b610dfb576040517f08c379a0000000000000000000000000000000000000000000000000000000008152600401610df2906124bb565b60405180910390fd5b6000610e06836106f4565b90508073ffffffffffffffffffffffffffffffffffffffff168473ffffffffffffffffffffffffffffffffffffffff161480610e485750610e478185610b86565b5b80610e8657508373ffffffffffffffffffffffffffffffffffffffff16610e6e846104cb565b73ffffffffffffffffffffffffffffffffffffffff16145b91505092915050565b8273ffffffffffffffffffffffffffffffffffffffff16610eaf826106f4565b73ffffffffffffffffffffffffffffffffffffffff1614610f05576040517f08c379a0000000000000000000000000000000000000000000000000000000008152600401610efc9061254d565b60405180910390fd5b600073ffffffffffffffffffffffffffffffffffffffff168273ffffffffffffffffffffffffffffffffffffffff1603610f74576040517f08c379a0000000000000000000000000000000000000000000000000000000008152600401610f6b906125df565b60405180910390fd5b610f7f83838361160d565b610f8a600082610cf8565b6001600360008573ffffffffffffffffffffffffffffffffffffffff1673ffffffffffffffffffffffffffffffffffffffff1681526020019081526020016000206000828254610fda9190612415565b925050819055506001600360008473ffffffffffffffffffffffffffffffffffffffff1673ffffffffffffffffffffffffffffffffffffffff168152602001908152602001600020600082825461103191906125ff565b92505081905550816002600083815260200190815260200160002060006101000a81548173ffffffffffffffffffffffffffffffffffffffff021916908373ffffffffffffffffffffffffffffffffffffffff160217905550808273ffffffffffffffffffffffffffffffffffffffff168473ffffffffffffffffffffffffffffffffffffffff167fddf252ad1be2c89b69c2b068fc378daa952ba7f163c4a11628f55a4df523b3ef60405160405180910390a46110f0838383611612565b505050565b8173ffffffffffffffffffffffffffffffffffffffff168373ffffffffffffffffffffffffffffffffffffffff1603611163576040517f08c379a000000000000000000000000000000000000000000000000000000000815260040161115a906126a1565b60405180910390fd5b80600560008573ffffffffffffffffffffffffffffffffffffffff1673ffffffffffffffffffffffffffffffffffffffff16815260200190815260200160002060008473ffffffffffffffffffffffffffffffffffffffff1673ffffffffffffffffffffffffffffffffffffffff16815260200190815260200160002060006101000a81548160ff0219169083151502179055508173ffffffffffffffffffffffffffffffffffffffff168373ffffffffffffffffffffffffffffffffffffffff167f17307eab39ab6107e8899845ad3d59bd9653f200f220920489ca2b5937696c31836040516112549190611918565b60405180910390a3505050565b61126c848484610e8f565b61127884848484611617565b6112b7576040517f08c379a00000000000000000000000000000000000000000000000000000000081526004016112ae90612733565b60405180910390fd5b50505050565b606060405180602001604052806000815250905090565b60606000820361131b576040518060400160405280600181526020017f3000000000000000000000000000000000000000000000000000000000000000815250905061142f565b600082905060005b6000821461134d57808061133690612753565b915050600a8261134691906127ca565b9150611323565b60008167ffffffffffffffff81111561136957611368611c39565b5b6040519080825280601f01601f19166020018201604052801561139b5781602001600182028036833780820191505090505b5090505b60008514611428576001826113b49190612415565b9150600a856113c391906127fb565b60306113cf91906125ff565b60f81b8183815181106113e5576113e461282c565b5b60200101907effffffffffffffffffffffffffffffffffffffffffffffffffffffffffffff1916908160001a905350600a8561142191906127ca565b945061139f565b8093505050505b919050565b600073ffffffffffffffffffffffffffffffffffffffff168273ffffffffffffffffffffffffffffffffffffffff16036114a3576040517f08c379a000000000000000000000000000000000000000000000000000000000815260040161149a906128a7565b60405180910390fd5b6114ac81610c84565b156114ec576040517f08c379a00000000000000000000000000000000000000000000000000000000081526004016114e390612913565b60405180910390fd5b6114f86000838361160d565b6001600360008473ffffffffffffffffffffffffffffffffffffffff1673ffffffffffffffffffffffffffffffffffffffff168152602001908152602001600020600082825461154891906125ff565b92505081905550816002600083815260200190815260200160002060006101000a81548173ffffffffffffffffffffffffffffffffffffffff021916908373ffffffffffffffffffffffffffffffffffffffff160217905550808273ffffffffffffffffffffffffffffffffffffffff16600073ffffffffffffffffffffffffffffffffffffffff167fddf252ad1be2c89b69c2b068fc378daa952ba7f163c4a11628f55a4df523b3ef60405160405180910390a461160960008383611612565b5050565b505050565b505050565b60006116388473ffffffffffffffffffffffffffffffffffffffff1661179e565b15611791578373ffffffffffffffffffffffffffffffffffffffff1663150b7a02611661610cf0565b8786866040518563ffffffff1660e01b81526004016116839493929190612988565b6020604051808303816000875af19250505080156116bf57506040513d601f19601f820116820180604052508101906116bc91906129e9565b60015b611741573d80600081146116ef576040519150601f19603f3d011682016040523d82523d6000602084013e6116f4565b606091505b506000815103611739576040517f08c379a000000000000000000000000000000000000000000000000000000000815260040161173090612733565b60405180910390fd5b805181602001fd5b63150b7a0260e01b7bffffffffffffffffffffffffffffffffffffffffffffffffffffffff1916817bffffffffffffffffffffffffffffffffffffffffffffffffffffffff191614915050611796565b600190505b949350505050565b6000808273ffffffffffffffffffffffffffffffffffffffff163b119050919050565b8280546117cd90611f40565b90600052602060002090601f0160209004810192826117ef5760008555611836565b82601f1061180857805160ff1916838001178555611836565b82800160010185558215611836579182015b8281111561183557825182559160200191906001019061181a565b5b5090506118439190611847565b5090565b5b80821115611860576000816000905550600101611848565b5090565b6000604051905090565b600080fd5b600080fd5b60007fffffffff0000000000000000000000000000000000000000000000000000000082169050919050565b6118ad81611878565b81146118b857600080fd5b50565b6000813590506118ca816118a4565b92915050565b6000602082840312156118e6576118e561186e565b5b60006118f4848285016118bb565b91505092915050565b60008115159050919050565b611912816118fd565b82525050565b600060208201905061192d6000830184611909565b92915050565b600081519050919050565b600082825260208201905092915050565b60005b8381101561196d578082015181840152602081019050611952565b8381111561197c576000848401525b50505050565b6000601f19601f8301169050919050565b600061199e82611933565b6119a8818561193e565b93506119b881856020860161194f565b6119c181611982565b840191505092915050565b600060208201905081810360008301526119e68184611993565b905092915050565b6000819050919050565b611a01816119ee565b8114611a0c57600080fd5b50565b600081359050611a1e816119f8565b92915050565b600060208284031215611a3a57611a3961186e565b5b6000611a4884828501611a0f565b91505092915050565b600073ffffffffffffffffffffffffffffffffffffffff82169050919050565b6000611a7c82611a51565b9050919050565b611a8c81611a71565b82525050565b6000602082019050611aa76000830184611a83565b92915050565b611ab681611a71565b8114611ac157600080fd5b50565b600081359050611ad381611aad565b92915050565b60008060408385031215611af057611aef61186e565b5b6000611afe85828601611ac4565b9250506020611b0f85828601611a0f565b9150509250929050565b600080600060608486031215611b3257611b3161186e565b5b6000611b4086828701611ac4565b9350506020611b5186828701611ac4565b9250506040611b6286828701611a0f565b9150509250925092565b611b75816119ee565b82525050565b6000602082019050611b906000830184611b6c565b92915050565b600060208284031215611bac57611bab61186e565b5b6000611bba84828501611ac4565b91505092915050565b611bcc816118fd565b8114611bd757600080fd5b50565b600081359050611be981611bc3565b92915050565b60008060408385031215611c0657611c0561186e565b5b6000611c1485828601611ac4565b9250506020611c2585828601611bda565b9150509250929050565b600080fd5b600080fd5b7f4e487b7100000000000000000000000000000000000000000000000000000000600052604160045260246000fd5b611c7182611982565b810181811067ffffffffffffffff82111715611c9057611c8f611c39565b5b80604052505050565b6000611ca3611864565b9050611caf8282611c68565b919050565b600067ffffffffffffffff821115611ccf57611cce611c39565b5b611cd882611982565b9050602081019050919050565b82818337600083830152505050565b6000611d07611d0284611cb4565b611c99565b905082815260208101848484011115611d2357611d22611c34565b5b611d2e848285611ce5565b509392505050565b600082601f830112611d4b57611d4a611c2f565b5b8135611d5b848260208601611cf4565b91505092915050565b60008060008060808587031215611d7e57611d7d61186e565b5b6000611d8c87828801611ac4565b9450506020611d9d87828801611ac4565b9350506040611dae87828801611a0f565b925050606085013567ffffffffffffffff811115611dcf57611dce611873565b5b611ddb87828801611d36565b91505092959194509250565b600067ffffffffffffffff821115611e0257611e01611c39565b5b611e0b82611982565b9050602081019050919050565b6000611e2b611e2684611de7565b611c99565b905082815260208101848484011115611e4757611e46611c34565b5b611e52848285611ce5565b509392505050565b600082601f830112611e6f57611e6e611c2f565b5b8135611e7f848260208601611e18565b91505092915050565b600060208284031215611e9e57611e9d61186e565b5b600082013567ffffffffffffffff811115611ebc57611ebb611873565b5b611ec884828501611e5a565b91505092915050565b60008060408385031215611ee857611ee761186e565b5b6000611ef685828601611ac4565b9250506020611f0785828601611ac4565b9150509250929050565b7f4e487b7100000000000000000000000000000000000000000000000000000000600052602260045260246000fd5b60006002820490506001821680611f5857607f821691505b602082108103611f6b57611f6a611f11565b5b50919050565b7f4552433732313a20617070726f76656420717565727920666f72206e6f6e657860008201527f697374656e7420746f6b656e0000000000000000000000000000000000000000602082015250565b6000611fcd602c8361193e565b9150611fd882611f71565b604082019050919050565b60006020820190508181036000830152611ffc81611fc0565b9050919050565b7f4552433732313a20617070726f76616c20746f2063757272656e74206f776e6560008201527f7200000000000000000000000000000000000000000000000000000000000000602082015250565b600061205f60218361193e565b915061206a82612003565b604082019050919050565b6000602082019050818103600083015261208e81612052565b9050919050565b7f4552433732313a20617070726f76652063616c6c6572206973206e6f74206f7760008201527f6e6572206e6f7220617070726f76656420666f7220616c6c0000000000000000602082015250565b60006120f160388361193e565b91506120fc82612095565b604082019050919050565b60006020820190508181036000830152612120816120e4565b9050919050565b7f4552433732313a207472616e736665722063616c6c6572206973206e6f74206f60008201527f776e6572206e6f7220617070726f766564000000000000000000000000000000602082015250565b600061218360318361193e565b915061218e82612127565b604082019050919050565b600060208201905081810360008301526121b281612176565b9050919050565b7f4552433732313a206f776e657220717565727920666f72206e6f6e657869737460008201527f656e7420746f6b656e0000000000000000000000000000000000000000000000602082015250565b600061221560298361193e565b9150612220826121b9565b604082019050919050565b6000602082019050818103600083015261224481612208565b9050919050565b7f4552433732313a2062616c616e636520717565727920666f7220746865207a6560008201527f726f206164647265737300000000000000000000000000000000000000000000602082015250565b60006122a7602a8361193e565b91506122b28261224b565b604082019050919050565b600060208201905081810360008301526122d68161229a565b9050919050565b7f4552433732314d657461646174613a2055524920717565727920666f72206e6f60008201527f6e6578697374656e7420746f6b656e0000000000000000000000000000000000602082015250565b6000612339602f8361193e565b9150612344826122dd565b604082019050919050565b600060208201905081810360008301526123688161232c565b9050919050565b600081905092915050565b600061238582611933565b61238f818561236f565b935061239f81856020860161194f565b80840191505092915050565b60006123b7828561237a565b91506123c3828461237a565b91508190509392505050565b60006123db828461237a565b915081905092915050565b7f4e487b7100000000000000000000000000000000000000000000000000000000600052601160045260246000fd5b6000612420826119ee565b915061242b836119ee565b92508282101561243e5761243d6123e6565b5b828203905092915050565b7f4552433732313a206f70657261746f7220717565727920666f72206e6f6e657860008201527f697374656e7420746f6b656e0000000000000000000000000000000000000000602082015250565b60006124a5602c8361193e565b91506124b082612449565b604082019050919050565b600060208201905081810360008301526124d481612498565b9050919050565b7f4552433732313a207472616e736665722066726f6d20696e636f72726563742060008201527f6f776e6572000000000000000000000000000000000000000000000000000000602082015250565b600061253760258361193e565b9150612542826124db565b604082019050919050565b600060208201905081810360008301526125668161252a565b9050919050565b7f4552433732313a207472616e7366657220746f20746865207a65726f2061646460008201527f7265737300000000000000000000000000000000000000000000000000000000602082015250565b60006125c960248361193e565b91506125d48261256d565b604082019050919050565b600060208201905081810360008301526125f8816125bc565b9050919050565b600061260a826119ee565b9150612615836119ee565b9250827fffffffffffffffffffffffffffffffffffffffffffffffffffffffffffffffff0382111561264a576126496123e6565b5b828201905092915050565b7f4552433732313a20617070726f766520746f2063616c6c657200000000000000600082015250565b600061268b60198361193e565b915061269682612655565b602082019050919050565b600060208201905081810360008301526126ba8161267e565b9050919050565b7f4552433732313a207472616e7366657220746f206e6f6e20455243373231526560008201527f63656976657220696d706c656d656e7465720000000000000000000000000000602082015250565b600061271d60328361193e565b9150612728826126c1565b604082019050919050565b6000602082019050818103600083015261274c81612710565b9050919050565b600061275e826119ee565b91507fffffffffffffffffffffffffffffffffffffffffffffffffffffffffffffffff82036127905761278f6123e6565b5b600182019050919050565b7f4e487b7100000000000000000000000000000000000000000000000000000000600052601260045260246000fd5b60006127d5826119ee565b91506127e0836119ee565b9250826127f0576127ef61279b565b5b828204905092915050565b6000612806826119ee565b9150612811836119ee565b9250826128215761282061279b565b5b828206905092915050565b7f4e487b7100000000000000000000000000000000000000000000000000000000600052603260045260246000fd5b7f4552433732313a206d696e7420746f20746865207a65726f2061646472657373600082015250565b600061289160208361193e565b915061289c8261285b565b602082019050919050565b600060208201905081810360008301526128c081612884565b9050919050565b7f4552433732313a20746f6b656e20616c7265616479206d696e74656400000000600082015250565b60006128fd601c8361193e565b9150612908826128c7565b602082019050919050565b6000602082019050818103600083015261292c816128f0565b9050919050565b600081519050919050565b600082825260208201905092915050565b600061295a82612933565b612964818561293e565b935061297481856020860161194f565b61297d81611982565b840191505092915050565b600060808201905061299d6000830187611a83565b6129aa6020830186611a83565b6129b76040830185611b6c565b81810360608301526129c9818461294f565b905095945050505050565b6000815190506129e3816118a4565b92915050565b6000602082840312156129ff576129fe61186e565b5b6000612a0d848285016129d4565b9150509291505056fea26469706673582212201094389a0ae3295c724d3be082b78fc1f79014ecda57e4ce92a07ca885893f1364736f6c634300080e0033",
  "immutableReferences": {},
  "source": "// SPDX-License-Identifier: MIT\r\npragma solidity ^0.8.0;\r\n\r\nimport \"./ERC721.sol\";\r\n\r\n\r\ncontract Color is ERC721 {\r\n    string[] public colors;\r\n    mapping(string => bool) _colorExists;\r\n    constructor () ERC721(\"Color\", \"COLOR\") {\r\n\r\n    }\r\n\r\n    function mint(string memory _color) public {\r\n        require(!_colorExists[_color]);\r\n        colors.push(_color);\r\n        uint _id = colors.length - 1;\r\n        _mint(msg.sender, _id);\r\n        _colorExists[_color] = true;\r\n    }\r\n\r\n    function allColors() view public returns(uint){\r\n        return colors.length;\r\n    }\r\n}",
  "sourcePath": "C:\\Users\\DELL R3\\Desktop\\block chain stuff\\color nft\\src\\contracts\\colors.sol",
  "compiler": {
    "name": "solc",
    "version": "0.8.14+commit.80d49f37.Emscripten.clang"
  },
  "schemaVersion": "3.4.7",
  "updatedAt": "2022-05-19T10:35:13.737Z",
  "networkType": "ethereum",
  "devdoc": {
    "kind": "dev",
    "methods": {
      "approve(address,uint256)": {
        "details": "See {IERC721-approve}."
      },
      "balanceOf(address)": {
        "details": "See {IERC721-balanceOf}."
      },
      "getApproved(uint256)": {
        "details": "See {IERC721-getApproved}."
      },
      "isApprovedForAll(address,address)": {
        "details": "See {IERC721-isApprovedForAll}."
      },
      "name()": {
        "details": "See {IERC721Metadata-name}."
      },
      "ownerOf(uint256)": {
        "details": "See {IERC721-ownerOf}."
      },
      "safeTransferFrom(address,address,uint256)": {
        "details": "See {IERC721-safeTransferFrom}."
      },
      "safeTransferFrom(address,address,uint256,bytes)": {
        "details": "See {IERC721-safeTransferFrom}."
      },
      "setApprovalForAll(address,bool)": {
        "details": "See {IERC721-setApprovalForAll}."
      },
      "supportsInterface(bytes4)": {
        "details": "See {IERC165-supportsInterface}."
      },
      "symbol()": {
        "details": "See {IERC721Metadata-symbol}."
      },
      "tokenURI(uint256)": {
        "details": "See {IERC721Metadata-tokenURI}."
      },
      "transferFrom(address,address,uint256)": {
        "details": "See {IERC721-transferFrom}."
      }
    },
    "version": 1
  },
  "userdoc": {
    "kind": "user",
    "methods": {},
    "version": 1
  }
}